:0200000480007A
:100000006F00C0006F0000006F0040039702000007
:10001000938202037390523073500030735030302B
:1000200073502030735040309721000093818148F5
:1000300017310000130101206F00001E130101F8A9
:1000400023201100232221002324310023264100F4
:1000500023285100232A6100232C7100232E8100C4
:10006000232091022322A1022324B1022326C102CC
:100070002328D102232AE102232CF102232E01039B
:1000800023201105232221052324310523264105A0
:1000900023285105232A6105232C7105232E810570
:1000A000232091072322A1072324B1072326C10778
:1000B0002328D107232AE107232CF107F322103448
:1000C000232E510673252034F32510341306010026
:1000D000EF00804A73101534B7220000938202802B
:1000E00073A002308320010003214100832181009D
:1000F0000322C100832201010323410183238101E3
:100100000324C101832401020325410283258102C6
:100110000326C102832601030327410383278103AA
:100120000328C1038328010403294104832981048E
:10013000032AC104832A0105032B4105832B810572
:10014000032CC105832C0106032D4106832D810656
:10015000032EC106832E0107032F4107832F81073A
:100160001301010873002030130101FE232E8100CA
:10017000130401022326A4FE2324B4FE2322C4FE7A
:100180006F00C0028327C4FE03A70700832784FEF5
:1001900023A0E7008327C4FE938747002326F4FEAD
:1001A000832784FE938747002324F4FE032784FEDD
:1001B000832744FEE3F8E7FC130000000324C10199
:1001C0001301010267800000130101FD2326810253
:1001D00013040103232EA4FC232CB4FC8327C4FDA9
:1001E0002326F4FE6F0080018327C4FE23A00700AE
:1001F0008327C4FE938747002326F4FE0327C4FE0B
:10020000832784FDE3F2E7FE130000000324C1020C
:100210001301010367800000130101FE232E11006A
:10022000232C810013040102B7270080938707C0A5
:100230002326F4FE8327C4FE2320F4FE232204FE9B
:10024000232404FEB7270080138607CCB72700803D
:10025000938507CBB7270080138507CBEFF0DFF03E
:10026000B727008013860717B7270080938507CC30
:10027000B7270080138507CCEFF01FEFB72700806A
:1002800093850718B727008013850717EFF0DFF372
:10029000B727008093850723B727008013850718A9
:1002A000EFF09FF2930704FE9385070013051000FB
:1002B000EF1000679307050013850700EF10C07F5C
:1002C000130101FD2326810213040103232EA4FC44
:1002D000F32740F12326F4FE8327C4FE2324F4FEF3
:1002E000370700408327C4FD93D75700832684FE39
:1002F00093965600B386F600B717000093870780E1
:10030000B387F60093972700B307F70083A707008A
:100310002322F4FE8327C4FD93F7F701130710008F
:10032000B317F70093C7F7FF032744FEB377F7002F
:100330002322F4FE370700408327C4FD93D75700DC
:10034000832684FE93965600B386F600B717000006
:1003500093870780B387F60093972700B307F700CA
:10036000032744FE23A0E700130000000324C1027A
:100370001301010367800000130101FE232E810099
:1003800013040102F32740F12326F4FE8327C4FE61
:100390002324F4FE37070040832784FE9387072039
:1003A0009397C700B307F70083A74700138507009B
:1003B0000324C1011301010267800000130101FD44
:1003C0002326810213040103232EA4FCF32740F10A
:1003D0002326F4FE8327C4FE2324F4FE37070040BF
:1003E000832784FE938707209397C700B307F700FE
:1003F0000327C4FD23A2E700130000000324C10269
:100400001301010367800000130101FE232E810008
:1004100013040102F36704302326F4FE13000000E6
:100420000324C1011301010267800000130101FED2
:10043000232E1100232C81001304010293070008CE
:10044000F3B747302326F4FEEF004021370700447E
:10045000B7C70000B307F70003A8C7FF83A787FF4C
:1004600037270080832507170326471737050044E1
:10047000732740F12324E4FE832884FEB386B7006B
:10048000138306003333F3003307C800B307E300D8
:10049000138707009387060013080700371700002B
:1004A000130707803387E800131737003307E50089
:1004B0002320F7002322070193070008F3A7473002
:1004C0002322F4FE130000008320C10103248101D4
:1004D0001301010267800000130101FE232E1100A9
:1004E000232C810013040102EFF01FE92326A4FE50
:1004F000A30504FEB72700800327C4FE13172700B7
:10050000938707CCB307F70083A70700E7800700AE
:1005100093070500A305F4FE0325C4FEEFF01FEAD0
:100520000347B4FE930710006316F7000325C4FECB
:10053000EFF01FD9130000008320C10103248101C3
:100540001301010267800000130101FF232611003F
:100550002324810013040101EF00C00EB7070044FB
:1005600023A00700130000008320C10003248100A2
:100570001301010167800000130101FE232E110009
:10058000232C8100130401022326A4FE2324B4FE9D
:100590008327C4FE63D207020327C4FEB707008087
:1005A00093C7F7FF3377F7009307B0006316F700A0
:1005B000EFF09FF26F0080078327C4FE63D207022B
:1005C0000327C4FEB707008093C7F7FF3377F70010
:1005D000930770006316F700EFF05FE56F0000050A
:1005E0008327C4FE63D207020327C4FEB707008037
:1005F00093C7F7FF3377F700930730006316F700D0
:10060000EFF09FF46F00800213065000B7270080C0
:10061000938587C013051000EF0040468327C4FE72
:100620009387170013850700EF000041832784FE9E
:10063000138507008320C1010324810113010102F6
:1006400067800000130101FF23261100232481008D
:10065000130401011305A000EF00003E130101FF88
:100660002326810013040101130000000324C100AC
:100670001301010167800000130101FF232681009F
:100680001304010193070000138507000324C10030
:100690001301010167800000130101FF232681007F
:1006A0001304010193070000138507000324C10010
:1006B0001301010167800000130101FF232681005F
:1006C0001304010193070000138507000324C100F0
:1006D0001301010167800000130101FF232681003F
:1006E0001304010193070000138507000324C100D0
:1006F0001301010167800000130101FF232681001F
:100700001304010193070000138507000324C100AF
:100710001301010167800000130101FF23268100FE
:100720001304010193070000138507000324C1008F
:100730001301010167800000130101FF23268100DE
:100740001304010193070000138507000324C1006F
:100750001301010167800000130101FF23268100BE
:100760001304010193070000138507000324C1004F
:100770001301010167800000130101FF232681009E
:100780001304010193070000138507000324C1002F
:100790001301010167800000130101FF232681007E
:1007A0001304010193070000138507000324C1000F
:1007B0001301010167800000130101FF232681005E
:1007C0001304010193070000138507000324C100EF
:1007D0001301010167800000130101FF232681003E
:1007E0001304010193070000138507000324C100CF
:1007F0001301010167800000130101FF232681001E
:100800001304010193070000138507000324C100AE
:100810001301010167800000130101FF23268100FD
:100820001304010193070000138507000324C1008E
:100830001301010167800000130101FF23268100DD
:100840001304010193070000138507000324C1006E
:100850001301010167800000130101FF23268100BD
:100860001304010193070000138507000324C1004E
:100870001301010167800000130101FF232681009D
:100880001304010193070000138507000324C1002E
:100890001301010167800000130101FF232681007D
:1008A0001304010193070000138507000324C1000E
:1008B0001301010167800000130101FF232681005D
:1008C0001304010193070000138507000324C100EE
:1008D0001301010167800000130101FF232681003D
:1008E0001304010193070000138507000324C100CE
:1008F0001301010167800000130101FF232681001D
:100900001304010193070000138507000324C100AD
:100910001301010167800000130101FF23268100FC
:100920001304010193070000138507000324C1008D
:100930001301010167800000130101FF23268100DC
:100940001304010193070000138507000324C1006D
:100950001301010167800000130101FF23268100BC
:100960001304010193070000138507000324C1004D
:100970001301010167800000130101FF232681009C
:100980001304010193070000138507000324C1002D
:100990001301010167800000130101FF232681007C
:1009A0001304010193070000138507000324C1000D
:1009B0001301010167800000130101FF232681005C
:1009C0001304010193070000138507000324C100ED
:1009D0001301010167800000130101FF232681003C
:1009E0001304010193070000138507000324C100CD
:1009F0001301010167800000130101FF232681001C
:100A00001304010193070000138507000324C100AC
:100A10001301010167800000130101FF23268100FB
:100A20001304010193070000138507000324C1008C
:100A30001301010167800000130101FE232E8100D4
:100A4000130401022326A4FE6F000000130101FE1F
:100A5000232E8100130401022326A4FEB727008061
:100A60000327C4FE23A0E7189307F0FF13850700B0
:100A70000324C1011301010267800000130101FE7C
:100A8000232E1100232C8100130401022326A4FE2F
:100A90002324B4FE2322C4FE13059000EFF01FFBB5
:100AA00093070500138507008320C10103248101FA
:100AB0001301010267800000130101FF23261100CA
:100AC0002324810013040101EFF01F9413000000A0
:100AD0008320C1000324810013010101678000000D
:100AE000130101FD2326810213040103232EA4FC1C
:100AF000232CB4FC8327C4FD2326F4FE8327C4FEE5
:100B0000032784FD23A0E700130000000324C10293
:100B10001301010367800000130101FD23268102F8
:100B200013040103232EA4FC8327C4FD2326F4FE13
:100B30008327C4FE83A70700138507000324C1028F
:100B40001301010367800000130101FD23268102C8
:100B500013040103232EA4FC232CB4FC232AC4FC7D
:100B60002328D4FC8327C4FD2326F4FE8327C4FE58
:100B700083A707002324F4FE032704FD832784FDB5
:100B8000B317F7002322F4FE032744FE832744FD16
:100B90003377F700832744FD93C6F7FF832784FE4E
:100BA000B3F7F6003367F7008327C4FE23A0E700FE
:100BB000130000000324C102130101036780000039
:100BC000130101FD2326810213040103232EA4FC3B
:100BD000232CB4FC8327C4FD2326F4FE832784FD45
:100BE00013970701135707018327C4FE2390E700DB
:100BF000130000000324C1021301010367800000F9
:100C0000130101FD2326810213040103232EA4FCFA
:100C10008327C4FD2326F4FE8327C4FE83D7070061
:100C20009397070193D70701138507000324C10297
:100C30001301010367800000130101FD23268102D7
:100C400013040103232EA4FC232CB4FC8327C4FD2E
:100C50002326F4FE832784FD13F7F70F8327C4FEB2
:100C60002380E700130000000324C10213010103E5
:100C700067800000130101FD232681021304010394
:100C8000232EA4FC8327C4FD2326F4FE8327C4FE61
:100C900083C7070093F7F70F138507000324C102EA
:100CA0001301010367800000130101FD23261102D7
:100CB0002324810213040103232EA4FC232CB4FC5F
:100CC0009307060013870600231BF4FC9307070015
:100CD000A30AF4FC8327C4FD638E070C034754FD6D
:100CE0009307700063E8E70C035764FDB727000023
:100CF0006372F70C832784FD13878700835764FD95
:100D000093F7F70F9385070013050700EFF0DFF265
:100D1000832784FD9386C700034754FD835764FDF2
:100D200093D7574093F7877FB367F7009385070002
:100D300013850600EFF05FF08327C4FD032784FDD1
:100D400023A0E7008327C4FD83A70700938707013B
:100D500013850700EFF01FF29307050093F72700B4
:100D6000A307F4FE6F0000048327C4FD83A70700D8
:100D70009387470013850700EFF0DFEF9307050027
:100D80002307F4FE8327C4FD83A707009387070189
:100D900013850700EFF01FEE9307050093F7270078
:100DA000A307F4FE8347F4FEE39007FC8327C4FD0A
:100DB00023820700130000008320C1020324810264
:100DC0001301010367800000130101FD23261102B6
:100DD0002324810213040103232EA4FC232CB4FC3E
:100DE000232AC4FC8327C4FD63800708832784FD6E
:100DF000638C0706832744FD63880706232604FEC9
:100E00006F00C0058327C4FD83A7070093870701F0
:100E100013850700EFF01FE69307050093F717000F
:100E2000A305F4FE8347B4FEE38E07FC8327C4FDCD
:100E300083A60700032784FD8327C4FEB307F700BA
:100E400083C707009385070013850600EFF0DFDEF8
:100E50008327C4FE938717002326F4FE0327C4FECE
:100E6000832744FDE360F7FA130000008320C102EA
:100E7000032481021301010367800000130101FDB7
:100E80002326110223248102232291021304010349
:100E9000232EA4FC232CB4FC232AC4FC232404FE0C
:100EA0008327C4FD6386070E832784FD6382070EB4
:100EB000832744FD638E070C232404FE8327C4FD8F
:100EC00083A707009387070113850700EFF09FDAD8
:100ED00093070500A303F4FE8327C4FD03C747005F
:100EE000834774FEB367F70013F7F70F8327C4FD3A
:100EF0002382E700834774FE93F72700A307F4FEDD
:100F00006F00C0078327C4FD83A7070093864700AF
:100F1000032784FD832784FEB304F70013850600AE
:100F2000EFF05FD5930705002380F400832784FE4C
:100F3000938717002324F4FE8327C4FD83A70700AB
:100F40009387070113850700EFF0DFD293070500B1
:100F5000A303F4FE8327C4FD03C74700834774FE41
:100F6000B367F70013F7F70F8327C4FD2382E70069
:100F7000834774FE93F72700A307F4FE8347F4FE2C
:100F800063880700032784FE832744FDE36CF7F69C
:100F9000832784FE138507008320C1020324810276
:100FA000832441021301010367800000130101FD46
:100FB000232611022324810213040103232EA4FCFF
:100FC000232CB4FC8327C4FD63800708832784FD9A
:100FD000638C0706232604FE6F00C0058327C4FD2B
:100FE00083A707009387070113850700EFF09FC8C9
:100FF0009307050093F71700A305F4FE8347B4FE9B
:10100000E38E07FC8327C4FD83A60700032784FD26
:101010008327C4FEB307F70083C707009385070043
:1010200013850600EFF05FC18327C4FE9387170086
:101030002326F4FE032784FD8327C4FEB307F700AD
:1010400083C70700E39C07F8130000008320C10258
:10105000032481021301010367800000130101FDD5
:101060002326110223248102130401032326A4FE54
:101070002324B4FE930706002320D4FE232EE4FC91
:10108000A303F4FE8327C4FE032784FE23A0E70006
:10109000832784FE938787009306000013062000B1
:1010A0009305100013850700EFF01FAA832784FE25
:1010B0009387870093060000130610009305000035
:1010C00013850700EFF05FA8832784FE938707014D
:1010D0009305100013850700EFF09FA0832784FE7F
:1010E0009387C700832504FE13850700EFF05F9FF9
:1010F0008325C4FD032584FEEFF09F9E834774FE85
:1011000063920702832784FE93878700930600007B
:10111000130640009305200013850700EFF0DFA2BF
:101120006F000002832784FE9387870093061000D8
:10113000130640009305200013850700EFF0DFA0A1
:10114000130000008320C102032481021301010364
:1011500067800000130101FE232E1100232C810063
:10116000130401022326A4FE8327C4FE83A70700DD
:101170009387870093061000130610009305000064
:1011800013850700EFF05F9C130000008320C1016E
:10119000032481011301010267800000130101FE95
:1011A000232E1100232C8100130401022326A4FE08
:1011B0008327C4FE83A70700938787009306100048
:1011C000130620009305100013850700EFF0DF974A
:1011D000130000008320C1010324810113010102D7
:1011E00067800000130101FE232E1100232C8100D3
:1011F000130401022326A4FE8327C4FE83A707004D
:10120000938707019305100013850700EFF05F8DAA
:10121000130000008320C101032481011301010296
:1012200067800000130101FD23261102232481029F
:1012300013040103232EA4FC232CB4FC232AC4FC96
:10124000A30704FE832784FD2324F4FE8327C4FD23
:10125000032784FD23A0E7008327C4FD032744FD63
:1012600023A2E700A30704FE832784FD2324F4FEC2
:101270006F00800293050000032584FEEFF0DF9BE2
:10128000832784FE938747002324F4FE8347F4FEDC
:1012900093871700A307F4FE0347F4FE9307F001BA
:1012A000E3FAE7FC8327C4FD83A747001307100078
:1012B000638AE7021307100063E4E70613072000C0
:1012C0006384E7006F00000C8327C4FD83A7070039
:1012D000938707089305F0FF13850700EFF05F8001
:1012E0006F00400A8327C4FD83A707001387070800
:1012F000B70701009385F7FF13050700EFF05F8C38
:101300008327C4FD83A7070013874708B707010099
:101310009385F7FF13050700EFF09F8A6F008006A3
:101320008327C4FD83A70700938707089305F00F61
:1013300013850700EFF05F908327C4FD83A70700A4
:10134000938747089305F00F13850700EFF0DF8EB2
:101350008327C4FD83A70700938787089305F00FB1
:1013600013850700EFF05F8D8327C4FD83A7070077
:101370009387C7089305F00F13850700EFF0DF8B05
:1013800013000000130000008320C1020324810227
:101390001301010367800000130101FE232E1100D9
:1013A000232C8100130401022326A4FE2324B4FE6F
:1013B0008327C4FE83A7470013071000638AE70250
:1013C0001307100063EEE706130720006384E700AD
:1013D0006F0000108327C4FE83A707009387070AC6
:1013E000832584FE13850700EFF08FEF6F00400E1A
:1013F0008327C4FE83A707009387070A032784FE79
:1014000013170701135707019305070013850700FA
:10141000EFF00FFB8327C4FE83A707001387470A5B
:10142000832784FE93D707019397070193D707017A
:101430009385070013050700EFF08FF86F00400950
:101440008327C4FE83A707009387070A032784FE28
:101450001377F70F9305070013850700EFF0CFFD13
:101460008327C4FE83A707001387470A832784FEC8
:1014700093D7870093F7F70F9385070013050700AD
:10148000EFF08FFB8327C4FE83A707001387870A2B
:10149000832784FE93D7070193F7F70F93850700FF
:1014A00013050700EFF04FF98327C4FE83A7070059
:1014B0001387C70A832784FE93D7870193F7F70F13
:1014C0009385070013050700EFF00FF713000000E6
:1014D000130000008320C1010324810113010102D4
:1014E00067800000130101FD2326110223248102DD
:1014F00013040103232EA4FC232604FE8327C4FD2A
:1015000083A7470013071000638AE7021307100040
:1015100063E2E708130720006384E7006F0080128E
:101520008327C4FD83A70700938707091385070056
:10153000EFF08FDE2326A4FE6F00C0108327C4FDCA
:1015400083A707009387070913850700EFF04FEB88
:1015500093070500138707008327C4FEB3E7E7005E
:101560002326F4FE8327C4FD83A70700938747093A
:1015700013850700EFF0CFE8930705009397070165
:10158000138707008327C4FEB3E7E7002326F4FE92
:101590006F00400B8327C4FD83A7070093870709CB
:1015A00013850700EFF00FED930705001387070081
:1015B0008327C4FEB3E7E7002326F4FE8327C4FD98
:1015C00083A707009387470913850700EFF08FEA89
:1015D0009307050093978700138707008327C4FEAE
:1015E000B3E7E7002326F4FE8327C4FD83A70700A3
:1015F0009387870913850700EFF0CFE7930705006E
:1016000093970701138707008327C4FEB3E7E7001A
:101610002326F4FE8327C4FD83A707009387C70909
:1016200013850700EFF00FE59307050093978701F7
:10163000138707008327C4FEB3E7E7002326F4FEE1
:10164000130000008327C4FE138507008320C10216
:10165000032481021301010367800000130101FECE
:10166000232E810013040102F32740F12324F4FE0A
:10167000832784FE2322F4FE232604FE6F00C0038A
:1016800037070040832744FE939657008327C4FE04
:10169000B386F600B717000093870780B387F6007C
:1016A00093972700B307F70023A007008327C4FE02
:1016B000938717002326F4FE8327C4FEE38207FCEA
:1016C000232604FE6F004002370700408327C4FE34
:1016D00093972700B307F70023A207008327C4FED0
:1016E000938717002326F4FE0327C4FE9307E00127
:1016F000E3FCE7FC37070040832744FE938707207D
:101700009397C700B307F70023A00700B71700009F
:1017100093870780F3A747302320F4FE13000000CF
:101720000324C1011301010267800000130101FDC0
:101730002326810213040103232EA4FCF32740F186
:101740002326F4FE8327C4FE2324F4FE370700403B
:101750008327C4FD93D75700832684FE93965600B3
:10176000B386F600B717000093870780B387F600AB
:1017700093972700B307F70083A707002322F4FEFF
:101780008327C4FD93F7F70113071000B317F70081
:10179000032744FEB367F7002322F4FE3707004017
:1017A0008327C4FD93D75700832684FE9396560063
:1017B000B386F600B717000093870780B387F6005B
:1017C00093972700B307F700032744FE23A0E70001
:1017D000130000000324C10213010103678000000D
:1017E000130101FE232E8100130401022326A4FE0F
:1017F0002324B4FE370700408327C4FE93972700B5
:10180000B307F700032784FE23A2E70013000000BC
:101810000324C1011301010267800000130101FECE
:10182000232E1100232C810013040102B72700800E
:1018300013850722EFF01FCB2326A4FE8327C4FEC7
:1018400093C7F7FF93F7070F2324F4FEB727008011
:1018500083A7872213971700B727008023A4E722C6
:10186000B727008003A787229307400063F8E700AB
:10187000B72700801307100023A4E722B7270080B2
:1018800083A78722032784FEB367F7002324F4FE8F
:10189000832584FEB72700801385C720EFF0DFAFD4
:1018A000B727008013858720EFF0DF931300000037
:1018B0008320C1010324810113010102678000001C
:1018C000130101FF232611002324810013040101C9
:1018D000B727008083A7872213871700B7270080C8
:1018E00023A4E722B727008083A787229397870046
:1018F00093850700B72700801385C720EFF0DFA985
:10190000B727008013854721EFF0DF8D130000001B
:101910008320C100032481001301010167800000BE
:10192000130101FD23261102232481021304010364
:10193000232EA4FC232CB4FCEFF05FD2130620006E
:10194000B7250070B727008013850722EFF09F8D21
:1019500013062000B7550070B72700801385C720F5
:10196000EFF05F8C930610001306C002B7150070ED
:10197000B727008013858721EFF00FB3B7270080CA
:1019800083A707CB93850700B7270080138587219E
:10199000EFF0CFE1B747010013878743930690002C
:1019A00013060000B7350070B72700801385872025
:1019B000EFF0CFEAB7A70000138707419306800036
:1019C00013060000B7450070B72700801385472134
:1019D000EFF0CFE8930510001305E001EFF05FE0B2
:1019E000930510001305F001EFF09FDF1305E001F0
:1019F000EFF0DFD31305F001EFF05FD3B7270080DE
:101A000013858720EFF08FF9B727008013854721D2
:101A1000EFF0CFF8EFF04F8AB727008013071000E0
:101A200023A4E722B727008013858720EFF08FF2E9
:101A3000B727008013854721EFF0CFF1B72700804B
:101A400013850722EFF01FAA2326A4FE9307A4FE06
:101A50001306100093850700B727008013858721A0
:101A6000EFF0CFC193070500A305F4FE8347B4FE52
:101A7000638E07009307A4FE1306100093850700EA
:101A8000B727008013858721EFF00FB48327C4FEAA
:101A900093C7F7FF13F7070FB727008083A78722A5
:101AA000B367F70093850700B72700801385C72029
:101AB000EFF09F8E6FF09FF8130101FF9305000078
:101AC000232481002326110013040500EF000002E7
:101AD000B727008003A547CB8327C503638407008E
:101AE000E780070013050400EFE01FF5130101FD77
:101AF000B7270080232E310183A947CB232C410136
:101B0000232A510123286101232611022324810263
:101B1000232291022320210323267101930A050029
:101B2000138A0500130B100083A48914638C04002E
:101B300003A444001309F4FF131424003384840025
:101B4000635809028320C1020324810283244102D5
:101B5000032901028329C101032A8101832A41014A
:101B6000032B0101832BC1001301010367800000D7
:101B7000630C0A0083274410638847011309F9FFA7
:101B80001304C4FF6FF0DFFB03A744008327440066
:101B90001307F7FF631C270323A22401E38007FE3A
:101BA00083A6841833172B0183AB4400B376D70088
:101BB00063920602E780070003A7440083A7891405
:101BC000E31477F7E38CF4FA6FF01FF62322040096
:101BD0006FF0DFFC83A6C418832544083377D70051
:101BE0006318070013850A00E78007006FF0DFFC29
:101BF00013850500E78007006FF01FFC0000000060
:101C000068656C6C6F000000747261700A000000FF
:101C10000D0A436F726554494D455220616E642030
:101C200065787465726E616C20496E746572727548
:101C30007074204578616D706C652E200D0A0D0A58
:101C40004F62736572766520746865204C454473F5
:101C500020626C696E6B696E67206F6E20746865B8
:101C600020626F6172642E20546865204C454420C8
:101C70007061747465726E73206368616E676573FA
:101C80002065766572792074696D652061207469BC
:101C90006D657220696E74657272757074206F6301
:101CA000637572730D0A000043000000000000001D
:101CB000101C0080401D0080401D008000000000BE
:101CC0007806008098060080B8060080D80600805C
:101CD000F806008018070080380700805807008049
:101CE0007807008098070080B8070080D807008038
:101CF000F807008018080080380800805808008025
:101D00007808008098080080B8080080D808008013
:101D1000F808008018090080380900805809008000
:101D20007809008098090080B8090080D8090080EF
:101D3000F8090080180A00801C180080C018008074
:101D4000000000002C20008094200080FC200080F7
:101D50000000000000000000000000000000000083
:101D60000000000000000000000000000000000073
:101D700000000000A81C008000000000000000001F
:101D80000000000000000000000000000000000053
:101D90000000000000000000000000000000000043
:101DA0000000000000000000000000000000000033
:101DB0000000000000000000000000000000000023
:101DC0000000000000000000000000000000000013
:101DD0000000000000000000000000000000000003
:101DE00000000000000000000100000000000000F2
:101DF0000E33CDAB34126DE6ECDE05000B000000B7
:101E000000000000000000000000000000000000D2
:101E100000000000000000000000000000000000C2
:101E200000000000000000000000000000000000B2
:101E300000000000000000000000000000000000A2
:040000058000000077
:00000001FF
