:020000042000DA
:1000000000000120910100207F03002081030020D7
:1000100083030020850300208703002000000000E8
:100020000000000000000000000000008903002024
:100030008B030020000000008D0300208F030020B0
:1000400091030020930300209503002097030020D4
:10005000990300209B0300209D0300209F030020A4
:10006000A1030020A3030020A5030020A703002074
:10007000A9030020AB030020AD030020AF03002044
:10008000B1030020B3030020B5030020B703002014
:10009000B9030020BB030020BD030020BF030020E4
:1000A000C1030020C3030020C5030020C7030020B4
:1000B000C9030020CB030020CD030020CF03002084
:1000C000D1030020D3030020D5030020D703002054
:1000D000D9030020DB030020DD030020DF03002024
:1000E000E1030020E3030020E5030020E7030020F4
:1000F000E9030020EB030020ED030020EF030020C4
:10010000F1030020F3030020F5030020F703002093
:10011000F9030020FB030020FD030020FF03002063
:10012000010400200304002005040020070400202F
:10013000090400200B0400200D0400200F040020FF
:1001400011040020130400201504002017040020CF
:10015000190400201B0400201D0400201F0400209F
:10016000210400202304002025040020270400206F
:10017000290400202B0400202D0400202F0400203F
:1001800031040020330400200000000000000000C3
:100190004FF0000BDFF8BE020068DFF8B612096806
:1001A00001F0030100F01C00142801D14BF0020BF8
:1001B000002901D04BF0010BBBF1000F05D0A7487F
:1001C000A749DFF8722200F09FF8A64880470BF09D
:1001D000020ABAF1000F0CD0DFF86E02DFF86E12DF
:1001E00002680B680FB44FF000024FF0FF0302608B
:1001F0000B609D4800220123022808D1DFF83E123F
:100200000A60DFF842120A60DFF836120B6001283C
:1002100008D1DFF82E120A60DFF82A120A60DFF830
:100220001E120B609148002809D191489149924AC9
:1002300000F032F891489249924A00F02DF8924825
:100240009249934A00F028F892489349DFF8E62152
:1002500000F05AF8BBF1000F12D090489049DFF837
:10026000DA2100F051F80BF0020ABAF1000F07D0C2
:100270000FBC02600B6000BFAFF30080AFF30080E3
:10028000DFF820020FF2030E00474FF000004FF09E
:100290000001DFF814F2FEE72DE9F841884225D08D
:1002A000B2EB010200D5FEE740EA010313F00303BD
:1002B00002D000F01DF819E04FF000039046121133
:1002C000F7D09A421CBFF0C8F0C103F10103F8D186
:1002D00008F00F08B8F1000F08D004780C7000F196
:1002E000010001F10101B8F10108F6D1BDE8F88182
:1002F00008B54FF0000303780B7000F1010001F125
:100300000101013AF7D108BD884237D000F0030659
:10031000002E14D04FF00405A5EB06044FF008079B
:1003200007FB06F8914669FA08F9002C07D080F817
:10033000009069FA07F900F10100013CF5E74FF080
:1003400000060F46091A88460911914614461546BB
:10035000B14206D018BFA0E8340206F10106B1424E
:10036000F8D108F00F08B8F1000F07D002704FEA7B
:10037000322200F10100B8F10108F4E77047FEE70E
:10038000FEE7FEE7FEE7FEE7FEE7FEE7FEE7FEE745
:10039000FEE7FEE7FEE7FEE7FEE7FEE7FEE7FEE735
:1003A000FEE7FEE7FEE7FEE7FEE7FEE7FEE7FEE725
:1003B000FEE7FEE7FEE7FEE7FEE7FEE7FEE7FEE715
:1003C000FEE7FEE7FEE7FEE7FEE7FEE7FEE7FEE705
:1003D000FEE7FEE7FEE7FEE7FEE7FEE7FEE7FEE7F5
:1003E000FEE7FEE7FEE7FEE7FEE7FEE7FEE7FEE7E5
:1003F000FEE7FEE7FEE7FEE7FEE7FEE7FEE7FEE7D5
:10040000FEE7FEE7FEE7FEE7FEE7FEE7FEE7FEE7C4
:10041000FEE7FEE7FEE7FEE7FEE7FEE7FEE7FEE7B4
:10042000FEE7FEE7FEE7FEE7FEE7FEE7FEE7FEE7A4
:10043000FEE7FEE7704700000000A2A2A2A2008033
:100440000340088003401080034030800340348024
:1004500003403880034018080240000000F00020EC
:100460000000012035060020000000000000000010
:10047000000000200000002090010020B0040020B7
:10048000B0040020A0080020A0080020A008002040
:10049000B0080020B0080020D0080020D0080020BC
:1004A00000F000209907002029070020000000002C
:1004B00010B5054C237833B9044B13B10448AFF39E
:1004C00000800123237010BDB00800200000000050
:1004D000800800200C4B43B10C4810B50C49AFF319
:1004E00000800C48036823B910BD0A48036833B97B
:1004F0007047094B002BF7D0BDE810401847064B5A
:10050000002BF5D0184700BF000000008008002035
:10051000B4080020A00800200000000080B483B0D0
:1005200000AF0346FB71094997F907305B09FA7977
:1005300002F01F02012000FA02F2203341F82320CA
:1005400000BF0C37BD4680BC704700BF00E100E033
:1005500080B483B000AF0346FB71094997F90730B7
:100560005B09FA7902F01F02012000FA02F26033FF
:1005700041F8232000BF0C37BD4680BC704700BF48
:1005800000E100E080B582B000AF1A4A194B9B6CC5
:1005900043F480139364174A164B9B6C43F0F0733B
:1005A000936400237B6012E0134A7B68134493F941
:1005B00000301846FFF7B2FF0F4A7B68134493F9E7
:1005C00000301846FFF7C4FF7B6801337B607B680F
:1005D0001F2BE9D9074A074B9B6C23F0F0739364F8
:1005E000044A044B9B6C23F48013936400BF0837C8
:1005F000BD4680BD008003406008002080B485B007
:1006000000AF03463960FB71FB79FB60FB681F2B71
:1006100000D900BEFB681F2B05D8054AFB6852F8BD
:1006200023303A681A6000BF1437BD4680BC70475B
:10063000E007002080B500AF00F030F8044A044B1A
:100640005B6943F400735361FFF7F4FE00BF80BDA4
:1006500000ED00E080B483B000AF0E4BD3F84C3116
:100660003B603B684FF60202934203D00A4A934232
:1006700003D005E001237B6005E002237B6002E0FC
:1006800000237B6000BF7B6818460C37BD4680BCEA
:10069000704700BF0080034002F8010080B582B0BF
:1006A00000AFFFF7D7FF78607B68012B00D002E036
:1006B00000F006F800BF00BF0837BD4680BD00004F
:1006C00080B400AF094A094BD3F8983043F48073E3
:1006D000C2F89830054A054BD3F8983023F0806370
:1006E000C2F8983000BFBD4680BC70470080034010
:1006F00080B483B000AF7860044A7B68C2F8883069
:1007000000BF0C37BD4680BC704700BF00300140C1
:1007100080B400AF034BD3F888301846BD4680BC88
:10072000704700BF0030014080B582B000AFFFF7D6
:1007300029FF05210020FFF761FF05210120FFF7B8
:100740005DFF05210220FFF759FF05210320FFF778
:1007500055FF00F00BF8FFF7DBFF78607B68DB43A9
:100760007B607868FFF7C4FFF3E7000080B483B0D4
:1007700000AF084B1B68DB097B6002E07B68013B34
:100780007B607B68002BF9D100BF0C37BD4680BC75
:10079000704700BFA408002070B500250C4E0D4C1A
:1007A000A41BA410A54209D100F06AF800250A4E46
:1007B0000A4CA41BA410A54205D170BD56F82530E3
:1007C00098470135EEE756F8253098470135F2E7AE
:1007D0009808002098080020980800209C08002015
:1007E0000030014004300140083001400C3001402D
:1007F0001030014014300140183001401C300140DD
:100800002030014024300140283001402C3001408C
:100810003030014034300140383001403C3001403C
:100820004030014044300140483001404C300140EC
:100830005030014054300140583001405C3001409C
:100840006030014064300140683001406C3001404C
:100850007030014074300140783001407C300140FC
:1008600032333435363738393A3B3C3D3E3F4041F0
:1008700042434445464748494A4B4C4D4E4F5051E0
:10088000F8B500BFF8BC08BC9E467047F8B500BF7D
:10089000F8BC08BC9E467047D5040020B104002077
:1008A00000000000C07AF204000000000000000018
:040000052000019145
:00000001FF
